:020000040800F2
:100000009006002089010008B50E0008550E000872
:10001000B10E00088F0200084D0F0008000000001C
:10002000000000000000000000000000E10E0008D9
:100030005103000800000000B70E0008E30E00089E
:10004000A3010008A3010008A3010008A301000800
:10005000A3010008A3010008A3010008A3010008F0
:10006000A3010008A3010008A3010008A3010008E0
:10007000A3010008A3010008A3010008A3010008D0
:10008000A3010008A3010008A3010008A3010008C0
:10009000A3010008A3010008A3010008A3010008B0
:1000A000A3010008A3010008A3010008A3010008A0
:1000B000A3010008A3010008A3010008A301000890
:1000C000A3010008A3010008A3010008A301000880
:1000D000A3010008A3010008A3010008A301000870
:1000E000A3010008A3010008A301000800F002F822
:1000F00000F03AF80AA090E8000C82448344AAF188
:100100000107DA4501D100F02FF8AFF2090EBAE885
:100110000F0013F0010F18BFFB1A43F0010318473B
:100120007414000094140000103A24BF78C878C1F9
:10013000FAD8520724BF30C830C144BF04680C60ED
:10014000704700000023002400250026103A28BF35
:1001500078C1FBD8520728BF30C148BF0B60704739
:100160001FB51FBD10B510BD00F058F81146FFF7C0
:10017000F7FF00F009FF00F076F803B4FFF7F2FF95
:1001800003BC00F07DF8000009488047094800479B
:10019000FEE7FEE7FEE7FEE7FEE7FEE7FEE7FEE737
:1001A000FEE7FEE704480549054A064B7047000094
:1001B0004B0F0008ED000008900000209006002082
:1001C00090020020900200204FF0000200B513467C
:1001D00094469646203922BFA0E80C50A0E80C5067
:1001E000B1F12001BFF4F7AF090728BFA0E80C5018
:1001F00048BF0CC05DF804EB890028BF40F8042B11
:1002000008BF704748BF20F8022B11F0804F18BF7D
:1002100000F8012B7047704770477047754600F033
:100220002BF8AE4605006946534620F00700854688
:1002300018B020B5FFF7B6FFBDE820404FF000062C
:100240004FF000074FF000084FF0000B21F00701BE
:10025000AC46ACE8C009ACE8C009ACE8C009ACE801
:10026000C0098D46704710B50446AFF300802046A4
:10027000BDE81040FFF781BF004870472C00002008
:1002800001491820ABBEFEE726000200704700BF00
:10029000FEE730B50446002504E04FF47A7000F024
:1002A00005F86D1CA542F8D330BD000010B501461D
:1002B00008480068084CB0FBF4F000FB01F200F0C5
:1002C0000DF8034600BF00F009F8C01A9042FAD3B7
:1002D00010BD00000000002040420F0001484068AF
:1002E00070470000001000E00748006840F0807090
:1002F000054908600020054948600846006840F04C
:100300000100086070470000FCED00E0001000E014
:100310002DE9FC5F83468A46584601F014F80646EC
:100320000F46504601F00FF802460B46CDE900019A
:100330000020064900F082FE804632463B4601F02E
:1003400015F8044600F0D2FFBDE8FC9F80842E41E2
:10035000704700002DE9F8470346002294466EE1FD
:100360004FF0010808FA02F4D1F8008008EA04000E
:10037000A0427DD1DFF8DCA2D1F80480A8EB0A0905
:10038000D0453AD014DCB8F1030F50D009DCB8F1F5
:10039000000F31D0B8F1010F1CD0B8F1020F49D1D4
:1003A00020E0B8F1110F18D0B8F1120F42D11EE0C1
:1003B000B9F5881F25D006DCB9F5803F20D0B9F506
:1003C000801F37D11AE0B9F5001F18D0B9F5041F06
:1003D00030D117E0D1F80CC02DE0D1F80C8008F135
:1003E000040C28E0D1F80C8008F1080C23E0D1F8C7
:1003F0000C8008F10C0C1EE000BF00BF00BF00BF66
:1004000000BF00BFD1F80880B8F1000F02D14FF053
:10041000040C0BE0D1F80880B8F1010F03D14FF0C4
:10042000080C1C6102E04FF0080C5C6103E04FF027
:10043000000C00E000BF00BFFF2801D8984601E093
:1004400003F104084646FF2802D84FEA820803E079
:10045000A2F108084FEA88084746D6F800804FF016
:100460000F0909FA07F928EA09080CFA07F900E068
:1004700088E048EA0908C6F80080D1F8048008F04E
:100480008058B8F1805F7DD100BFDFF8CC81D8F80B
:10049000188048F00108DFF8C091C9F81880C846F4
:1004A000D8F8188008F00108CDF8008000BF00BF20
:1004B0004FEAB9384FEA920958F829504FEA827842
:1004C0004FEA18794FF00F0808FA09F825EA0805ED
:1004D000DFF88881434502D14FF0000816E0DFF8CD
:1004E0008081434502D14FF001080FE0DFF87481AD
:1004F000434502D14FF0020808E0DFF86C81434524
:1005000002D14FF0030801E04FF004084FEA82796E
:100510004FEA197908FA09F848EA0505DFF84C812D
:100520004FEA920948F82950D1F8048008F480185D
:10053000B8F5801F0AD1DFF83881D8F8008048EA82
:100540000008DFF82C91C9F8008009E0DFF820816D
:10055000D8F8008028EA0008DFF81491C9F8008074
:10056000D1F8048008F40018B8F5001F10D1DFF8A6
:10057000008108F10408D8F8008048EA0008DFF894
:10058000F09000E05AE009F10409C9F800800DE09C
:10059000DFF8DC8008F10408D8F8008028EA0008B9
:1005A000DFF8CC9009F10409C9F80080D1F8048083
:1005B00008F40038B8F5003F0ED1DFF8B480A8F198
:1005C0000408D8F8008048EA0008DFF8A490A9F1F0
:1005D0000409C9F800800DE0DFF89480A8F1040850
:1005E000D8F8008028EA0008DFF88490A9F104090F
:1005F000C9F80080D1F8048008F48038B8F5803F4D
:100600000ED1DFF86C80A8F10808D8F8008048EA1D
:100610000008DFF85C90A9F10809C9F800800DE036
:10062000DFF84C80A8F10808D8F8008028EA000814
:10063000DFF83C90A9F10809C9F80080521CD1F8F4
:10064000008028FA02F8B8F1000F7FF489AEBDE807
:10065000F88700000000111000100240000801405F
:10066000000C01400010014000140140080001404E
:10067000080401400AB1016101E00B040361704705
:10068000014800687047000004000020034800682B
:1006900003490978084401490860704704000020B4
:1006A0000C00002010B50848006840F01000064912
:1006B0000860032000F070F80F2000F007F800F049
:1006C0002BF8002010BD00000020024070B5044649
:1006D0000E4800784FF47A71B1FBF0F00C490968CC
:1006E000B1FBF0F5284600F09BFB08B1012070BD7E
:1006F000102C07D200222146501E00F00EF80548AB
:10070000046001E00120F2E70020F0E70C00002087
:10071000000000200800002070472DE9F05F8046AF
:100720000D461646002700F013FC074639462A46B8
:10073000334601F00700C0F1070ABAF1040F02D9ED
:100740004FF0040A01E0C0F1070AD14600F1040AA3
:10075000BAF1070F02D24FF0000A01E0A0F1030A3C
:10076000D4464FF0010A0AFA09FAAAF1010A0AEA84
:10077000020A0AFA0CFA4FF0010B0BFA0CFBABF170
:10078000010B0BEA030B4AEA0B042146404600F03A
:10079000E7FBBDE8F09F000000BF00F00702064B3A
:1007A00019684FF6FF031940044B0B4343EA02213B
:1007B000014B196000BF70470CED00E00000FA0526
:1007C00070B504460D460CB9012070BD5A4800684A
:1007D00000F00700A8420ED25748006820F007003A
:1007E0002843554908600846006800F00700A84201
:1007F00001D00120E9E7207800F0020002281DD195
:10080000207800F00400042805D14C48406840F4EA
:10081000E0604A494860207800F00800082805D1C7
:100820004648406840F46050444948604348406846
:1008300020F0F000A168084340494860207800F0AB
:10084000010078B36068012806D13C48006800F4D4
:10085000003090B90120B8E76068022806D1374817
:10086000006800F0007040B90120AEE7334800682E
:1008700000F0020008B90120A7E73048406820F0E6
:100880000300616808432D494860FFF7F9FE0646FA
:1008900009E0FFF7F5FE801B41F28831884202D95A
:1008A000032092E707E02548406800F00C006168EB
:1008B000B0EB810FEDD12048006800F00700A8429E
:1008C0000ED91D48006820F0070028431A49086027
:1008D0000846006800F00700A84201D0012074E734
:1008E000207800F00400042807D11448406820F460
:1008F000E060E168084311494860207800F0080092
:10090000082808D10D48406820F46050216940EA69
:10091000C1000A49486000F019F808494968C1F364
:100920000311074A515CC840064908600648006840
:10093000FFF7CCFE002048E70020024000100240F4
:1009400068150008000000200800002070B5002194
:100950000022002400230020134D696801F00C05DB
:10096000F5B1042D02D0082D19D101E00F4819E08E
:100970000F4DC1F38346AB5D01F4803555B10A4D8F
:100980006D68C5F340450B4E725D084D5D43B5FB88
:10099000F2F402E0084D03FB05F4204602E000BF3C
:1009A000024800BF00BF70BD0010024000127A0074
:1009B000801500089015000800093D00F8B50446B0
:1009C0000CB90120F8BD207800F00100002878D093
:1009D000F848406800F00C0004280CD0F548406846
:1009E00000F00C00082811D1F248406800F4803073
:1009F000B0F5803F0AD1EF48006800F400300028CD
:100A00005FD0606800285CD10120DBE700BF606830
:100A1000B0F5803F06D1E748006840F48030E549F2
:100A2000086028E0606858B9E248006820F4803027
:100A3000E04908600846006820F4802008601AE059
:100A40006068B0F5A02F0BD1DA48006840F4802030
:100A5000D84908600846006840F4803008600AE021
:100A6000D448006820F48030D24908600846006805
:100A700020F48020086000BF606888B1FFF700FEA6
:100A8000054606E0FFF7FCFD401B642801D9032062
:100A900098E7C848006800F400300028F2D010E061
:100AA000FFF7EEFD054606E0FFF7EAFD401B642870
:100AB00001D9032086E7BF48006800F40030002811
:100AC000F2D1207800F00200022857D1B9484068DE
:100AD00000F00C0050B1B748406800F00C00082846
:100AE00018D1B448406800F4803098B9B148006823
:100AF00000F0020020B12069012801D0012061E747
:100B0000AC48006820F0F800616940EAC100A949DA
:100B1000086033E02069E8B10120A7490860FFF7C9
:100B2000AFFD054606E0FFF7ABFD401B022801D9EB
:100B3000032047E79F48006800F002000028F2D039
:100B40009C48006820F0F800616940EAC1009949BA
:100B5000086013E0002098490860FFF791FD054602
:100B600006E0FFF78DFD401B022801D9032029E78D
:100B70009048006800F002000028F2D1207800F0D0
:100B8000080008282DD1A069B8B101208B49086060
:100B9000FFF776FD054606E0FFF772FD401B0228D1
:100BA00001D903200EE78348406A00F002000028C4
:100BB000F2D0012000F080F913E000207F490860A6
:100BC000FFF75EFD054606E0FFF75AFD401B0228D1
:100BD00001D90320F6E67748406A00F002000028B9
:100BE000F2D1207800F00400042873D10027714866
:100BF000C06900F0805070B900BF6E48C06940F015
:100C000080506C49C8610846C06900F0805000906F
:100C100000BF00BF01276A48006800F48070B0B9C7
:100C20006748006840F4807065490860FFF728FD58
:100C3000054606E0FFF724FD401B642801D9032088
:100C4000C0E65F48006800F480700028F2D000BF62
:100C5000E068012806D15748006A40F00100554974
:100C6000086227E0E06858B95248006A20F00100A5
:100C7000504908620846006A20F00400086219E042
:100C8000E06805280BD14B48006A40F00400494950
:100C900008620846006A40F0010008620AE0454820
:100CA000006A20F00100434908620846006A20F00B
:100CB0000400086200BFE068A0B1FFF7E1FC054650
:100CC00009E0FFF7DDFC401B41F28831884202D980
:100CD000032077E622E03748006A00F0020000288F
:100CE000EFD012E0FFF7CCFC054608E0FFF7C8FCA8
:100CF000401B41F28831884201D9032062E62D4829
:100D0000006A00F002000028F0D1012F05D1294827
:100D1000C06920F080502749C86100BFE069C8B3AE
:100D20002448406800F00C00082860D0E0690228E0
:100D300048D1002020490866FFF7A2FC054606E0DE
:100D4000FFF79EFC401B022801D903203AE6194810
:100D5000006800F000700028F2D1206AB0F5803FF2
:100D600007D11448406820F40030A16808431149B5
:100D70004860D4E9080108430E49496821F4741118
:100D800008430C49486001200B490866FFF778FCCE
:100D9000054607E03DE0FFF773FC401B022801D940
:100DA00003200FE60348006800F000700028F2D02E
:100DB0002FE0000000100240000042428004424246
:100DC00000700040002014490866FFF759FC0546F2
:100DD00006E0FFF755FC401B022801D90320F1E58E
:100DE0000E48006800F000700028F2D111E0E069C0
:100DF000012800D1E6E50948466806F48031206AFA
:100E0000814204D106F47011606A814201D0012050
:100E1000D8E50020D6E50000000042420010024064
:100E200070B504462546681EB0F1807F01D30120CD
:100E30000FE0681E4FF0E02148610F214FF0FF30B6
:100E400000F08EF800204FF0E02188610720086153
:100E5000002070BD00BFFEE700B585B00020019006
:100E600002900390049000BF0F48806940F0040096
:100E70000D4988610846806900F00400009000BFB9
:100E800000BF0E200190012002900020039002205C
:100E9000049001A90548FFF75DFA01220E210348DD
:100EA000FFF7E8FB05B000BD00100240000801405C
:100EB00000BFFEE77047704708B508490968C908D0
:100EC0004FF47A72B1FBF2F14143009100BF00BFD1
:100ED00000994A1E00920029F9D108BD00000020A7
:100EE000704710B5FFF7D2FB10BD00B58FB01421CD
:100EF0000AA8FFF769F928216846FFF765F901207C
:100F00000090000401900020029002200790C1038D
:100F100008914FF4E01109916846FFF74FFD08B1C1
:100F200000BFFEE70F200A9002200B9000200C90DB
:100F30000E904FF480600D9002210AA8FFF740FC4C
:100F400008B100BFFEE70FB000BD704700BFFEE76D
:100F500002480068C0F30220704700000CED00E07A
:100F600010B5002804DB0A07130E054A135406E0E7
:100F70000A07140E034A00F00F031B1FD45410BDC0
:100F800000E400E018ED00E0FFF78CFBFFF7ADFF99
:100F9000FFF7AAF9FFF760FF43E0FFF79FF9002191
:100FA000204A03C2002202211F48FFF763FB0022F0
:100FB00004211D48FFF75EFB002208211A48FFF7B5
:100FC00059FB4FF47A70FFF764F9012202211648A9
:100FD000FFF750FB012204211348FFF74BFB0122CE
:100FE00008211148FFF746FB4FF47A70FFF751F9DB
:100FF000FFF774F900210D4A03C20C48D0E9002024
:101000000849D1E90031D21A60EB01000849C1E971
:1010100000200848016806480068FFF779F906498A
:101020000860BAE710000020000801401800002006
:101030002000002000000020280000202DE9C041F1
:1010400030B4DFF8A0C23CEA111418BF3CEA131414
:1010500000F0EC8081EA03051CEA111444EAD5741F
:1010600018BF1CEA131500F0C780A4EB05044FF06D
:10107000004545EAC12145EAC32341EA505143EA0C
:10108000525304F17F74994204F500344FEAC020B2
:101090004FEAC22208BF904200F09C804FEA1365DD
:1010A0000FF24016765D4FEA134506FB05F7C7F1D0
:1010B000807706FB07F74FEAD737A7FB036876422E
:1010C000C8F58038A7FB06CE38BFA8F1010807FB9A
:1010D00008E64FF0000EA6FB028CE6FB03CEDCF127
:1010E000000CCEF1004E38BFAEF1010EA6FB0C583D
:1010F0004FF000074FF00005E6FB0E87A1FB08C686
:10110000A0FB07CE16EB0E0645F10005E1FB0765D7
:1011100015F1E04E7EBFA4F580345FEA46066D41CE
:1011200016F1800745F100054FEA17274FEA0666DA
:1011300047EA0567A6F1DE46B6F1805F4FEA15255E
:101140001FD9384624F0010C05EBC471BCF1FE6FC9
:1011500001EB0C1102D8F0BCBDE8008124425CBF59
:1011600001F5801E9EEAC47F02D4F0BCBDE8008178
:10117000244238D4F0BCA1F1C041BDE8004100F0E8
:10118000EDB94FEAD22242EA43524FEAD323A7FBFA
:1011900002864FEAD02040EA415007FB03661EEA70
:1011A0000E0F4FEAD12105FB026658BFA6EB005691
:1011B000B6EB00564FEA520E4EEAC37E18EB0E0E07
:1011C00056EB530EBDD518EB02085E417F1C55F15E
:1011D0000005B6E74FF480154FF000074FF000060A
:1011E0004FF00008ADE7F0BC4FF0000001F1C04146
:1011F00001F00041BDE8008111EA0C1F0CEA131553
:1012000000D00CE013EA0C1F00F025804FF0000026
:10121000F0BC81EA030101F00041BDE80081F0BCAF
:10122000BDE8004181EA030100F098B9F0BCBDE8D7
:10123000004170B500F044F9097EFC3E00F007B8AB
:1012400081EA03014FF0000001F00041704781EA9C
:10125000030100F083B9F0BCBDE800414FF000008D
:1012600021497047FFFDFBF9F7F5F4F2F0EEEDEBE5
:10127000E9E8E6E4E3E1E0DEDDDBDAD8D7D5D4D394
:10128000D1D0CFCDCCCBCAC8C7C6C5C4C2C1C0BFE0
:10129000BEBDBCBBBAB9B8B7B6B5B4B3B2B1B0AFE6
:1012A000AEADACABAAA9A8A8A7A6A5A4A3A3A2A1CA
:1012B000A09F9F9E9D9C9C9B9A9999989797969585
:1012C00095949393929191908F8F8E8E8D8C8C8B21
:1012D0008B8A8989888887878685858484838382A9
:1012E000828181800000FF070000F87F4FEA1153E0
:1012F000A3F58063D3F11E03A8BFD3F1200C08DB54
:101300004FF0004242EAC12252EA505232FA03F050
:10131000704709420BD4102BC4BF0020704703F55F
:10132000787CBCF1FF3F05D04FF0FF3070474FF0A5
:101330000000704770B500F0C3F800BF49922480E8
:1013400000207047F0E7B0FA80F310FA03F10AD0FA
:10135000C3F11D0303F580634FEA41504FEA035286
:1013600002EBD12170474FF000007047DFF848C111
:1013700070B51CEA111E1EBF1CEA13159EEA0C0F65
:1013800095EA0C0F00F06F8081EA030423EA4C1306
:101390004EEAD47E21EA4C1141F4801143F48013CB
:1013A000AE44A1FB024CA0FB0365AEF17F7E361973
:1013B00055EB0C05A1FB034C4CF10003A0FB021CF8
:1013C00016EB0C06654153F10003094218BF46F0C5
:1013D000010613F4007F0BD14FEA03314FEA0530C9
:1013E000340341EA155140EA16506FF003020AE057
:1013F0004FEAC3214FEAC520F40241EA555140EAC1
:1014000056506FF0020202EB2E4201EB025585EAC4
:10141000CE710AD05FEA440C18BF24F0004450F1AA
:10142000000041F1000120EAD47040F2FE7C6245E8
:1014300000D270BDA84214BF4FF080444FF040442A
:10144000002E08BF0024BEF1806FA8BFA1F1C041EB
:10145000BDE8704080F282804FF0000001F1C04191
:1014600001F0004170479EEA0C0F0CEA131518BFFB
:1014700095EA0C0F06D04FF0000081EA030E0EF043
:10148000004170BD00F01CF88900013E00F007B873
:1014900000F009B84FEA430C5FEA5C5C08D081EACF
:1014A000030100F05BB84FEA410C5FEA5C5CF6D1E7
:1014B0004FF00000014970470000FF070000F87F6F
:1014C0000EF1020E2EF0030E5EF8046B364205D4C8
:1014D000012A43EB030515F5001F12D8012841EB43
:1014E000010C1CF5001F0CD80ED14FEAD17C15F56C
:1014F000001F0CEB4C0C0CF1020C08BF4CEBD37C26
:1015000004E04FF0080C01E04FEAD37C0CEB4C05F3
:1015100026FA05F606F00706B6F1040C06D20EEB25
:10152000860CBDE870404CF0010C6047DFE80CF021
:10153000090B02024FF000414FF00000A1F500211D
:1015400070BD19461046012851EB010418BFD4F5AF
:10155000001484BF002001F0004170BD0808A0F510
:1015600000114FEA31017047000000000000000048
:101570000102030406070809000000000102030439
:1015800002030405060708090A0B0C0D0E0F1010C4
:1015900001020000B4150008000000202C0000002B
:1015A00028010008E01500082C0000206406000057
:1015B0004401000800127A00000000001000000042
:1015C000010000000000000000000000000000001A
:1015D000000000000000000000000000000000000B
:04000005080000ED02
:00000001FF
