:020000040800F2
:100000006004002005010008511200080F120008CA
:100010004D1200089D010008DD14000800000000DA
:100020000000000000000000000000007D12000839
:10003000FD03000800000000531200087F120008B2
:100040001F0100081F0100081F0100081F01000810
:100050001F0100081F0100081F0100081F01000800
:100060001F0100081F0100081F0100081F010008F0
:100070001F0100081F0100081F0100081F010008E0
:100080001F0100081F0100081F0100081F010008D0
:100090001F0100081F0100081F0100081F010008C0
:1000A0001F0100081F0100081F0100081F010008B0
:1000B0001F0100081F0100081F0100081F010008A0
:1000C0001F0100081F0100081F0100081F01000890
:1000D0001F0100081F0100081F0100081F01000880
:1000E0001F0100081F0100081F010008DFF810D0E1
:1000F00000F042F800480047C9160008AFF300803E
:10010000600400200648804706480047FEE7FEE7F7
:10011000FEE7FEE7FEE7FEE7FEE7FEE7FEE7FEE7B7
:10012000E7120008ED000008D2B201E000F8012B50
:10013000491EFBD270470022F6E710B513460A4667
:1001400004461946FFF7F0FF204610BD30B50B46B8
:10015000014600202022012409E021FA02F59D42F7
:1001600005D303FA02F5491B04FA02F52844151ECB
:10017000A2F10102F1DC30BD064C074D06E0E0685B
:1001800040F0010394E8070098471034AC42F6D3DE
:10019000FFF7B0FF1C1700083C17000800BFFEE780
:1001A00000B585B00020019002900390049000BF3C
:1001B0000F48806940F008000D4988610846806951
:1001C00000F00800009000BF00BF881401900120DB
:1001D0000290002003900220049001A9054800F03D
:1001E00089F901221103034800F01CFB05B000BD92
:1001F00000100240000C014070B50025002420E0F2
:1002000000BF4FF48051114800F004FB0028F8D0E3
:10021000282000F0C1F84FF480510C4800F0FAFAA1
:1002200001280CD1C4F1070188402843C5B200BFA2
:100230004FF48051054800F0EDFA0128F8D0601C19
:10024000C4B2082CDCDB284670BD0000000C014065
:1002500070B5044600250021012000F06FF800224F
:100260004FF48051344800F0DDFA142000F07CF89F
:1002700001221103304800F0D5FA1E2000F08CF85E
:100280000121002000F05AF800BF09E0681CC0B24C
:100290000546642801DD012070BD012000F07CF8D6
:1002A0004FF48051244800F0B5FA0128EED0002523
:1002B00009E0681CC0B20546642801DD0120EBE7B7
:1002C000012000F069F84FF480511B4800F0A2FAB9
:1002D0000028EED0002509E0681CC0B2054664285D
:1002E00001DD0120D8E7012000F056F84FF48051DD
:1002F000114800F08FFA0128EED0FFF77DFF207043
:10030000FFF77AFF6070FFF777FFA070FFF774FFC9
:10031000E070FFF771FF2071207861780844A178C0
:100320000844E1780844C6B22079B04201D00120E7
:10033000B2E70020B0E70000000C01407FB50546A1
:100340000C46002000900190029003904FF48050E2
:10035000009001950294022003906946014800F044
:10036000C9F87FBD000C014030B50446002504E00B
:100370004FF47A7000F010F86D1CA542F8D330BD30
:1003800030B50446002504E04FF47A70FFF7ECFF27
:100390006D1CA542F8D330BD10B501460848006871
:1003A000084CB0FBF4F000FB01F200F00DF803463E
:1003B00000BF00F009F8C01A9042FAD310BD000047
:1003C0000000002040420F000148406870470000D4
:1003D000001000E00748006840F0807005490860A0
:1003E0000020054948600846006840F001000860A8
:1003F00070470000FCED00E0001000E070470000D6
:1004000010B51848FFF724FF002827D116A001F0E7
:1004100067F81448407800F0800030B11148427805
:10042000017817A001F05CF805E00E4842780178E9
:1004300019A001F055F80B48C07800F0800030B1E9
:100440000848C278817819A001F04AF809E0054807
:10045000C27881781AA001F043F802E01DA001F0F3
:100460003FF810BD0D000020B5B1C7B0CAFDBEDD1C
:10047000B4ABCAE4D0A3D1E9D5FDC8B7A3BA000094
:10048000CAAAB6C8CEAA202D25642E25642025250B
:100490005248A3AC00000000CAAAB6C8CEAA2025C4
:1004A000642E25642025255248A3AC00CEC2B6C8D0
:1004B000CEAA202D25642E256420A1E60D0A000079
:1004C000CEC2B6C8CEAA2025642E256420A1E60D92
:1004D0000A000000B6C1C8A14448543131CAFDBE6B
:1004E000DDB4EDCEF3A3A10D0A00000072B600BF8B
:1004F000FEE700002DE9F8470346002294466EE12E
:100500004FF0010808FA02F4D1F8008008EA04006C
:10051000A0427DD1DFF8DCA2D1F80480A8EB0A0963
:10052000D0453AD014DCB8F1030F50D009DCB8F153
:10053000000F31D0B8F1010F1CD0B8F1020F49D132
:1005400020E0B8F1110F18D0B8F1120F42D11EE01F
:10055000B9F5881F25D006DCB9F5803F20D0B9F564
:10056000801F37D11AE0B9F5001F18D0B9F5041F64
:1005700030D117E0D1F80CC02DE0D1F80C8008F193
:10058000040C28E0D1F80C8008F1080C23E0D1F825
:100590000C8008F10C0C1EE000BF00BF00BF00BFC4
:1005A00000BF00BFD1F80880B8F1000F02D14FF0B2
:1005B000040C0BE0D1F80880B8F1010F03D14FF023
:1005C000080C1C6102E04FF0080C5C6103E04FF086
:1005D000000C00E000BF00BFFF2801D8984601E0F2
:1005E00003F104084646FF2802D84FEA820803E0D8
:1005F000A2F108084FEA88084746D6F800804FF075
:100600000F0909FA07F928EA09080CFA07F900E0C6
:1006100088E048EA0908C6F80080D1F8048008F0AC
:100620008058B8F1805F7DD100BFDFF8CC81D8F869
:10063000188048F00108DFF8C091C9F81880C84652
:10064000D8F8188008F00108CDF8008000BF00BF7E
:100650004FEAB9384FEA920958F829504FEA8278A0
:100660004FEA18794FF00F0808FA09F825EA08054B
:10067000DFF88881434502D14FF0000816E0DFF82B
:100680008081434502D14FF001080FE0DFF874810B
:10069000434502D14FF0020808E0DFF86C81434582
:1006A00002D14FF0030801E04FF004084FEA8279CD
:1006B0004FEA197908FA09F848EA0505DFF84C818C
:1006C0004FEA920948F82950D1F8048008F48018BC
:1006D000B8F5801F0AD1DFF83881D8F8008048EAE1
:1006E0000008DFF82C91C9F8008009E0DFF82081CC
:1006F000D8F8008028EA0008DFF81491C9F80080D3
:10070000D1F8048008F40018B8F5001F10D1DFF804
:10071000008108F10408D8F8008048EA0008DFF8F2
:10072000F09000E05AE009F10409C9F800800DE0FA
:10073000DFF8DC8008F10408D8F8008028EA000817
:10074000DFF8CC9009F10409C9F80080D1F80480E1
:1007500008F40038B8F5003F0ED1DFF8B480A8F1F6
:100760000408D8F8008048EA0008DFF8A490A9F14E
:100770000409C9F800800DE0DFF89480A8F10408AE
:10078000D8F8008028EA0008DFF88490A9F104096D
:10079000C9F80080D1F8048008F48038B8F5803FAB
:1007A0000ED1DFF86C80A8F10808D8F8008048EA7C
:1007B0000008DFF85C90A9F10809C9F800800DE095
:1007C000DFF84C80A8F10808D8F8008028EA000873
:1007D000DFF83C90A9F10809C9F80080521CD1F853
:1007E000008028FA02F8B8F1000F7FF489AEBDE866
:1007F000F8870000000011100010024000080140BE
:10080000000C0140001001400014014008000140AC
:1008100008040140024693680B400BB1012000E040
:10082000002070470AB1016101E00B0403617047C9
:100830000148006870470000040000200348006879
:100840000349097808440149086070470400002002
:100850000C00002010B50848006840F01000064960
:100860000860032000F070F80F2000F007F800F097
:100870002BF8002010BD00000020024070B5044697
:100880000E4800784FF47A71B1FBF0F00C4909681A
:10089000B1FBF0F5284600F0C1FB08B1012070BDA6
:1008A000102C07D200222146501E00F00EF80548F9
:1008B000046001E00120F2E70020F0E70C000020D6
:1008C000000000200800002070472DE9F05F8046FE
:1008D0000D461646002700F013FE074639462A4605
:1008E000334601F00700C0F1070ABAF1040F02D93C
:1008F0004FF0040A01E0C0F1070AD14600F1040AF2
:10090000BAF1070F02D24FF0000A01E0A0F1030A8A
:10091000D4464FF0010A0AFA09FAAAF1010A0AEAD2
:10092000020A0AFA0CFA4FF0010B0BFA0CFBABF1BE
:10093000010B0BEA030B4AEA0B042146404600F088
:10094000E7FDBDE8F09F000000BF00F00702064B86
:1009500019684FF6FF031940044B0B4343EA022189
:10096000014B196000BF70470CED00E00000FA0574
:1009700070B504460D460CB9012070BD5A48006898
:1009800000F00700A8420ED25748006820F0070088
:100990002843554908600846006800F00700A8424F
:1009A00001D00120E9E7207800F0020002281DD1E3
:1009B000207800F00400042805D14C48406840F439
:1009C000E0604A494860207800F00800082805D116
:1009D0004648406840F46050444948604348406895
:1009E00020F0F000A168084340494860207800F0FA
:1009F000010078B36068012806D13C48006800F423
:100A0000003090B90120B8E76068022806D1374865
:100A1000006800F0007040B90120AEE7334800687C
:100A200000F0020008B90120A7E73048406820F034
:100A30000300616808432D494860FFF7F9FE064648
:100A400009E0FFF7F5FE801B41F28831884202D9A8
:100A5000032092E707E02548406800F00C00616839
:100A6000B0EB810FEDD12048006800F00700A842EC
:100A70000ED91D48006820F0070028431A49086075
:100A80000846006800F00700A84201D0012074E782
:100A9000207800F00400042807D11448406820F4AE
:100AA000E060E168084311494860207800F00800E0
:100AB000082808D10D48406820F46050216940EAB8
:100AC000C1000A49486000F03FF808494968C1F38D
:100AD0000311074A515CC84006490860064800688F
:100AE000FFF7CCFE002048E7002002400010024043
:100AF000F0160008000000200800002001480068EF
:100B0000704700000000002000B5FFF7F7FF044920
:100B10004968C1F30221034A515CC84000BD00008E
:100B2000001002400017000800B5FFF7E7FF044976
:100B30004968C1F3C221034A515CC84000BD0000AE
:100B4000001002400017000870B5002100220024A8
:100B500000230020134D696801F00C05F5B1042D48
:100B600002D0082D19D101E00F4819E00F4DC1F353
:100B70008346AB5D01F4803555B10A4D6D68C5F310
:100B800040450B4E725D084D5D43B5FBF2F402E04B
:100B9000084D03FB05F4204602E000BF024800BFF9
:100BA00000BF70BD0010024000127A000817000854
:100BB0001817000800093D00F8B504460CB90120DB
:100BC000F8BD207800F00100002878D0F84840688F
:100BD00000F00C0004280CD0F548406800F00C0030
:100BE000082811D1F248406800F48030B0F5803F09
:100BF0000AD1EF48006800F4003000285FD0606838
:100C000000285CD10120DBE700BF6068B0F5803FC1
:100C100006D1E748006840F48030E549086028E0E4
:100C2000606858B9E248006820F48030E049086004
:100C30000846006820F4802008601AE06068B0F57B
:100C4000A02F0BD1DA48006840F48020D849086012
:100C50000846006840F4803008600AE0D448006824
:100C600020F48030D24908600846006820F48020D3
:100C7000086000BF606888B1FFF7DAFD054606E04E
:100C8000FFF7D6FD401B642801D9032098E7C84828
:100C9000006800F400300028F2D010E0FFF7C8FD33
:100CA000054606E0FFF7C4FD401B642801D9032078
:100CB00086E7BF48006800F400300028F2D12078B1
:100CC00000F00200022857D1B948406800F00C003B
:100CD00050B1B748406800F00C00082818D1B4485B
:100CE000406800F4803098B9B148006800F0020014
:100CF00020B12069012801D0012061E7AC480068DB
:100D000020F0F800616940EAC100A949086033E0B9
:100D10002069E8B10120A7490860FFF789FD054671
:100D200006E0FFF785FD401B022801D9032047E7B5
:100D30009F48006800F002000028F2D09C4800683C
:100D400020F0F800616940EAC1009949086013E0A9
:100D5000002098490860FFF76BFD054606E0FFF7A5
:100D600067FD401B022801D9032029E7904800684D
:100D700000F002000028F2D1207800F008000828D6
:100D80002DD1A069B8B101208B490860FFF750FD53
:100D9000054606E0FFF74CFD401B022801D9032061
:100DA0000EE78348406A00F002000028F2D00120DC
:100DB00000F050FA13E000207F490860FFF738FD8B
:100DC000054606E0FFF734FD401B022801D9032049
:100DD000F6E67748406A00F002000028F2D1207859
:100DE00000F00400042873D100277148C06900F0A6
:100DF000805070B900BF6E48C06940F080506C49A7
:100E0000C8610846C06900F08050009000BF00BF74
:100E100001276A48006800F48070B0B9674800682C
:100E200040F4807065490860FFF702FD054606E062
:100E3000FFF7FEFC401B642801D90320C0E65F4891
:100E4000006800F480700028F2D000BFE06801283C
:100E500006D15748006A40F001005549086227E072
:100E6000E06858B95248006A20F001005049086211
:100E70000846006A20F00400086219E0E0680528CE
:100E80000BD14B48006A40F004004949086208460B
:100E9000006A40F0010008620AE04548006A20F05C
:100EA0000100434908620846006A20F00400086215
:100EB00000BFE068A0B1FFF7BBFC054609E0FFF703
:100EC000B7FC401B41F28831884202D9032077E603
:100ED00022E03748006A00F002000028EFD012E05C
:100EE000FFF7A6FC054608E0FFF7A2FC401B41F215
:100EF0008831884201D9032062E62D48006A00F05B
:100F000002000028F0D1012F05D12948C06920F046
:100F100080502749C86100BFE069C8B324484068D1
:100F200000F00C00082860D0E069022848D10020B9
:100F300020490866FFF77CFC054606E0FFF778FCD1
:100F4000401B022801D903203AE61948006800F046
:100F500000700028F2D1206AB0F5803F07D1144814
:100F6000406820F40030A168084311494860D4E982
:100F7000080108430E49496821F4741108430C49DB
:100F8000486001200B490866FFF752FC054607E060
:100F90003DE0FFF74DFC401B022801D903200FE67E
:100FA0000348006800F000700028F2D02FE0000035
:100FB00000100240000042428004424200700040A3
:100FC000002014490866FFF733FC054606E0FFF7EA
:100FD0002FFC401B022801D90320F1E50E480068D0
:100FE00000F000700028F2D111E0E069012800D182
:100FF000E6E50948466806F48031206A814204D15A
:1010000006F47011606A814201D00120D8E5002009
:10101000D6E50000000042420010024070B50446D0
:101020002546681EB0F1807F01D301200FE0681EC5
:101030004FF0E02148610F214FF0FF3000F068FAD7
:1010400000204FF0E021886107200861002070BD7A
:1010500010B504460CB9012010BDA06900B100E034
:1010600000BF94F8410028B9002084F840002046D1
:1010700000F02AF8242084F841002068C06820F499
:1010800000502168C860204600F064F920680069BB
:1010900020F49040216808612068406920F02A000F
:1010A000216848612068C06840F400502168C86029
:1010B00000206064202084F8410084F84200002071
:1010C000606300BFC8E7000010B586B0044600208A
:1010D00002900390049005901A49206888422ED10E
:1010E00000BF1948806940F480401749886108466C
:1010F000806900F48040019000BF00BF00BF084637
:10110000806940F0040088610846806900F00400AE
:10111000019000BF00BF48150290022003900320F9
:10112000059002A90948FFF7E5F94FF480600290A5
:1011300000200390049002A90448FFF7DBF906B0F1
:1011400010BD0000003801400010024000080140BE
:101150002DE9F84F04460E46174699464FF0000A0F
:1011600094F84100202850D106B117B90120BDE8FC
:10117000F88F00206064212084F84100FFF758FBBD
:101180008246A784E784A068B0F5805F04D1206917
:1011900010B90025B04602E035464FF000081EE0C9
:1011A0005346002280212046CDF8009000F050F9EF
:1011B00020B1202084F841000320D8E745B9B8F8D1
:1011C0000000C0F308002168486008F1020803E04D
:1011D0002878216848606D1CE08C401EE084E08C1B
:1011E0000028DDD15346002240212046CDF8009052
:1011F00000F02EF920B1202084F841000320B6E74A
:10120000202084F841000020B1E70220AFE700BFB2
:10121000FEE7000010B50B480B4908604FF4E130C1
:101220004860002108488160C16001610C21416172
:1012300000218161C161FFF70BFF08B1FFF756F98B
:1012400010BD0000003801401800002000BFFEE77C
:101250007047704708B508490968C9084FF47A72A1
:10126000B1FBF2F14143009100BF00BF00994A1E5B
:1012700000920029F9D108BD00000020704710B588
:10128000FFF7DCFA10BD00B58FB014210AA8FEF7F5
:1012900052FF28216846FEF74EFF0120009000040F
:1012A00001900020029002200790C10308914FF4A2
:1012B000E01109916846FFF77FFC08B100BFFEE727
:1012C0000F200A9002200B9000200C900E904FF4FB
:1012D00080600D9002210AA8FFF74AFB08B100BF09
:1012E000FEE70FB000BD704700BF00BF02680C32C0
:1012F00052E8002F22F4907102680C3242E8001389
:10130000002BF3D100BF00BF00BF0268143252E8C7
:10131000002F22F001010268143242E80013002B72
:10132000F3D100BF016B01290ED100BF00BF0268DD
:101330000C3252E8002F22F0100102680C3242E811
:101340000013002BF3D100BF202180F842100021B0
:101350000163704770B504462168096921F4405162
:10136000E2681143226811612269A1681143626930
:1013700041EA02052168C96841F20C6291432943A0
:101380002268D1602168496921F44071A269114342
:10139000226851612D4A2168914202D1FFF7C4FBB6
:1013A00001E0FFF7B1FB00EBC00101EB0011626847
:1013B0009200B1FBF2F100EBC00202EB0012636895
:1013C0009B00B2FBF3F26423B2FBF3F202EBC20325
:1013D00003EB0212A1EB8201322202EB0111642223
:1013E000B1FBF2F101F0F00100EBC00202EB0012E0
:1013F00063689B00B2FBF3F26423B2FBF3F201EBF0
:10140000021200EBC00101EB001163689B00B1FB0D
:10141000F3F100EBC00303EB00136668B600B3FB07
:10142000F6F36426B3FBF6F303EBC30606EB0313F4
:10143000A1EB8301322303EB01116423B1FBF3F130
:1014400001F00F0111442268916070BD0038014025
:101450002DE9F84304460D4617469846089E31E0AC
:10146000701C70B3FFF7E4F9A0EB0800B04200D89D
:1014700016B90320BDE8F8832068C06800F00400B6
:10148000F8B1802D1ED0402D1CD020680068C0F31C
:10149000C000B0B100BF002000902068006800903C
:1014A00020684068009000BF00BF2046FFF71CFF87
:1014B0000820606400BF002084F8400000BF0120C5
:1014C000D8E7FFE7206800682840A84201D1012042
:1014D00000E00020B842C3D00020CBE700BFFEE709
:1014E0000FB4054B10B503A9044A029800F034F874
:1014F00010BC5DF814FB0000AD16000814000020BD
:1015000002480068C0F30220704700000CED00E0C4
:1015100010B5002804DB0A07130E054A135406E031
:101520000A07140E034A00F00F031B1FD45410BD0A
:1015300000E400E018ED00E002E008C8121F08C156
:10154000002AFAD170477047002001E001C1121F44
:10155000002AFBD1704700002DE9FF4F89B09B4660
:101560000446002506E025280BD05A460B999047E3
:10157000641C6D1C20780028F5D10DB02846BDE80C
:10158000F08F0027B8460122474900E0074314F8CE
:10159000013F203B02FA03F00842F7D120782E28C1
:1015A00019D114F8010F47F004072A280ED06FF064
:1015B0002F022078A0F1300109290CD808EB88010E
:1015C00002EB410100EB0108641CF2E70A98641C7D
:1015D00050F8048B0A9020780028CED0642808D0D8
:1015E000692806D075281ED05A460B9990476D1C65
:1015F00058E00A994FF00A0901C90A91002802DA55
:1016000040422D2102E0390504D52B218DF8201010
:10161000012103E0F90704D02021F7E78A4608AE4C
:101620000DE00021FAE70A994FF00A0901C90A9171
:10163000F7E74946FEF78AFD303106F8011D00281C
:10164000F7D1ADEB060000F12009780701D44FF087
:101650000108C84502DDA8EB090000E00020804633
:10166000002706E008A85A46C05D0B9990476D1CFC
:101670007F1C5745F6DB04E030205A460B99904713
:101680006D1CB8F10001A8F10108F5DC05E016F8C1
:10169000010B5A460B9990476D1CB9F10001A9F155
:1016A0000109F4DC641C65E70928010013B50C4648
:1016B0004FF0FF33012269460248FFF749FD0098C9
:1016C0001CBD000018000020FFF7C4F8FFF7DBFD89
:1016D000FFF7A0FDFEF77EFEFEF762FD0120FEF79C
:1016E0004FFE04E0FEF78CFE0220FEF749FEF9E70C
:1016F00000000000000000000102030406070809C2
:1017000000000000010203040203040506070809A3
:101710000A0B0C0D0E0F1010010200003C17000800
:1017200000000020180000003815000854170008B9
:1017300018000020480400004815000800127A0034
:101740000000000010000000010000000000000088
:041750000000000095
:04000005080000ED02
:00000001FF
